{
  "_format": "hh-sol-artifact-1",
  "contractName": "Counter",
  "sourceName": "contracts/Counter.sol",
  "abi": [
    {
      "inputs": [],
      "stateMutability": "nonpayable",
      "type": "constructor"
    },
    {
      "inputs": [],
      "name": "author",
      "outputs": [
        {
          "internalType": "string",
          "name": "",
          "type": "string"
        }
      ],
      "stateMutability": "view",
      "type": "function"
    },
    {
      "inputs": [],
      "name": "count",
      "outputs": [
        {
          "internalType": "uint256",
          "name": "",
          "type": "uint256"
        }
      ],
      "stateMutability": "view",
      "type": "function"
    },
    {
      "inputs": [],
      "name": "decrement",
      "outputs": [],
      "stateMutability": "nonpayable",
      "type": "function"
    },
    {
      "inputs": [],
      "name": "getCount",
      "outputs": [
        {
          "internalType": "uint256",
          "name": "",
          "type": "uint256"
        }
      ],
      "stateMutability": "view",
      "type": "function"
    },
    {
      "inputs": [],
      "name": "increment",
      "outputs": [],
      "stateMutability": "nonpayable",
      "type": "function"
    },
    {
      "inputs": [],
      "name": "reset",
      "outputs": [],
      "stateMutability": "nonpayable",
      "type": "function"
    }
  ],
  "bytecode": "0x608060405234801561001057600080fd5b50600080819055506040518060400160405280601381526020017f56696e6963697573204e617363696d656e746f000000000000000000000000008152506001908161005c91906102b2565b50610384565b600081519050919050565b7f4e487b7100000000000000000000000000000000000000000000000000000000600052604160045260246000fd5b7f4e487b7100000000000000000000000000000000000000000000000000000000600052602260045260246000fd5b600060028204905060018216806100e357607f821691505b6020821081036100f6576100f561009c565b5b50919050565b60008190508160005260206000209050919050565b60006020601f8301049050919050565b600082821b905092915050565b60006008830261015e7fffffffffffffffffffffffffffffffffffffffffffffffffffffffffffffffff82610121565b6101688683610121565b95508019841693508086168417925050509392505050565b6000819050919050565b6000819050919050565b60006101af6101aa6101a584610180565b61018a565b610180565b9050919050565b6000819050919050565b6101c983610194565b6101dd6101d5826101b6565b84845461012e565b825550505050565b600090565b6101f26101e5565b6101fd8184846101c0565b505050565b5b81811015610221576102166000826101ea565b600181019050610203565b5050565b601f82111561026657610237816100fc565b61024084610111565b8101602085101561024f578190505b61026361025b85610111565b830182610202565b50505b505050565b600082821c905092915050565b60006102896000198460080261026b565b1980831691505092915050565b60006102a28383610278565b9150826002028217905092915050565b6102bb82610062565b67ffffffffffffffff8111156102d4576102d361006d565b5b6102de82546100cb565b6102e9828285610225565b600060209050601f83116001811461031c576000841561030a578287015190505b6103148582610296565b86555061037c565b601f19841661032a866100fc565b60005b828110156103525784890151825560018201915060208501945060208101905061032d565b8683101561036f578489015161036b601f891682610278565b8355505b6001600288020188555050505b505050505050565b6103d9806103936000396000f3fe608060405234801561001057600080fd5b50600436106100625760003560e01c806306661abd146100675780632baeceb714610085578063a6c3e6b91461008f578063a87d942c146100ad578063d09de08a146100cb578063d826f88f146100d5575b600080fd5b61006f6100df565b60405161007c91906101df565b60405180910390f35b61008d6100e5565b005b61009761010b565b6040516100a4919061028a565b60405180910390f35b6100b5610199565b6040516100c291906101df565b60405180910390f35b6100d36101a2565b005b6100dd6101bd565b005b60005481565b60008054111561010957600160008082825461010191906102db565b925050819055505b565b600180546101189061033e565b80601f01602080910402602001604051908101604052809291908181526020018280546101449061033e565b80156101915780601f1061016657610100808354040283529160200191610191565b820191906000526020600020905b81548152906001019060200180831161017457829003601f168201915b505050505081565b60008054905090565b60016000808282546101b4919061036f565b92505081905550565b60008081905550565b6000819050919050565b6101d9816101c6565b82525050565b60006020820190506101f460008301846101d0565b92915050565b600081519050919050565b600082825260208201905092915050565b60005b83811015610234578082015181840152602081019050610219565b60008484015250505050565b6000601f19601f8301169050919050565b600061025c826101fa565b6102668185610205565b9350610276818560208601610216565b61027f81610240565b840191505092915050565b600060208201905081810360008301526102a48184610251565b905092915050565b7f4e487b7100000000000000000000000000000000000000000000000000000000600052601160045260246000fd5b60006102e6826101c6565b91506102f1836101c6565b9250828203905081811115610309576103086102ac565b5b92915050565b7f4e487b7100000000000000000000000000000000000000000000000000000000600052602260045260246000fd5b6000600282049050600182168061035657607f821691505b6020821081036103695761036861030f565b5b50919050565b600061037a826101c6565b9150610385836101c6565b925082820190508082111561039d5761039c6102ac565b5b9291505056fea2646970667358221220a09eb209770101b3f5c6babdf2ecb39946f4e3fcd3ad481531fbb42742eea9fd64736f6c634300081c0033",
  "linkReferences": {},
  "deployedLinkReferences": {}
}